{
    "contractName": "Shipping",
    "abi": [
        {
            "inputs": [],
            "stateMutability": "nonpayable",
            "type": "constructor"
        },
        {
            "anonymous": false,
            "inputs": [
                {
                    "indexed": false,
                    "internalType": "string",
                    "name": "description",
                    "type": "string"
                }
            ],
            "name": "LogNewAlert",
            "type": "event"
        },
        {
            "inputs": [],
            "name": "Delivered",
            "outputs": [],
            "stateMutability": "nonpayable",
            "type": "function"
        },
        {
            "inputs": [],
            "name": "Shipped",
            "outputs": [],
            "stateMutability": "nonpayable",
            "type": "function"
        },
        {
            "inputs": [],
            "name": "Status",
            "outputs": [
                {
                    "internalType": "string",
                    "name": "",
                    "type": "string"
                }
            ],
            "stateMutability": "view",
            "type": "function"
        }
    ],
    "bytecode": "608060405234801561000f575f80fd5b505f805460ff191690556102bc806100265f395ff3fe608060405234801561000f575f80fd5b506004361061003f575f3560e01c806345f09ce914610043578063779822f7146100615780637e59301e1461006b575b5f80fd5b61004b610073565b6040516100589190610226565b60405180910390f35b61006961008a565b005b6100696100fd565b5f5460609060ff166100848161016a565b91505090565b5f805460ff191660021790556040805160208082526018908201527f596f7572207061636b6167652068617320617272697665640000000000000000918101919091527fca75c80642b93c980135b8355995abae3ab06033dc81f956b3824323b4903ef5906060015b60405180910390a1565b5f805460ff19166001179055604080516020808252601d908201527f596f7572207061636b61676520686173206265656e2073686970706564000000918101919091527fca75c80642b93c980135b8355995abae3ab06033dc81f956b3824323b4903ef5906060016100f3565b606081600281111561017e5761017e610272565b5f036101a757505060408051808201909152600781526650656e64696e6760c81b602082015290565b8160028111156101b9576101b9610272565b6001036101e357505060408051808201909152600781526614da1a5c1c195960ca1b602082015290565b8160028111156101f5576101f5610272565b60020361022157505060408051808201909152600981526811195b1a5d995c995960ba1b602082015290565b919050565b5f602080835283518060208501525f5b8181101561025257858101830151858201604001528201610236565b505f604082860101526040601f19601f8301168501019250505092915050565b634e487b7160e01b5f52602160045260245ffdfea2646970667358221220de478405a044651fcd2c23ec54dc223f1fb8c33fabdc777aa1427b46ce3c3b8064736f6c63430008180033",
    "sourcePath": "/Users/degame/Documents/rcc/preparation/hardhat-project/contracts/Shipping.sol",
    "compiler": {
        "name": "solc",
        "version": "0.8.24+commit.e11b9ed9"
    },
    "functionHashes": {
        "Delivered()": "779822f7",
        "Shipped()": "7e59301e",
        "Status()": "45f09ce9"
    },
    "gasEstimates": {
        "creation": {
            "codeDepositCost": "140000",
            "executionCost": "24398",
            "totalCost": "164398"
        },
        "external": {
            "Delivered()": "25987",
            "Shipped()": "26020",
            "Status()": "infinite"
        },
        "internal": {
            "getStatus(enum Shipping.ShippingStatus)": "infinite"
        }
    }
}